{
  "contractName": "AuctionFactory",
  "abi": [
    {
      "inputs": [],
      "payable": false,
      "stateMutability": "nonpayable",
      "type": "constructor"
    },
    {
      "anonymous": false,
      "inputs": [
        {
          "indexed": false,
          "name": "owner",
          "type": "address"
        },
        {
          "indexed": false,
          "name": "auction",
          "type": "address"
        }
      ],
      "name": "AuctionCreated",
      "type": "event"
    },
    {
      "constant": false,
      "inputs": [
        {
          "name": "duration",
          "type": "uint256"
        },
        {
          "name": "startAuctionAmount",
          "type": "uint256"
        },
        {
          "name": "imageUrl",
          "type": "string"
        }
      ],
      "name": "createAuction",
      "outputs": [],
      "payable": false,
      "stateMutability": "nonpayable",
      "type": "function"
    },
    {
      "constant": true,
      "inputs": [],
      "name": "getAuctions",
      "outputs": [
        {
          "name": "",
          "type": "address[]"
        }
      ],
      "payable": false,
      "stateMutability": "view",
      "type": "function"
    },
    {
      "constant": false,
      "inputs": [
        {
          "name": "auctionAddress",
          "type": "address"
        }
      ],
      "name": "destroy",
      "outputs": [
        {
          "name": "",
          "type": "bool"
        }
      ],
      "payable": false,
      "stateMutability": "nonpayable",
      "type": "function"
    }
  ],
  "bytecode": "0x6060604052341561000f57600080fd5b6111e18061001e6000396000f300606060405260043610610056576000357c0100000000000000000000000000000000000000000000000000000000900463ffffffff168062f55d9d1461005b5780634736b359146100ac578063d7c069191461011b575b600080fd5b341561006657600080fd5b610092600480803573ffffffffffffffffffffffffffffffffffffffff16906020019091905050610185565b604051808215151515815260200191505060405180910390f35b34156100b757600080fd5b610119600480803590602001909190803590602001909190803590602001908201803590602001908080601f01602080910402602001604051908101604052809392919081815260200183838082843782019150505050505091905050610264565b005b341561012657600080fd5b61012e61043a565b6040518080602001828103825283818151815260200191508051906020019060200280838360005b83811015610171578082015181840152602081019050610156565b505050509050019250505060405180910390f35b600080600090505b600080549050811015610259576000818154811015156101a957fe5b906000526020600020900160009054906101000a900473ffffffffffffffffffffffffffffffffffffffff1673ffffffffffffffffffffffffffffffffffffffff168373ffffffffffffffffffffffffffffffffffffffff16141561024e5760008181548110151561021757fe5b906000526020600020900160006101000a81549073ffffffffffffffffffffffffffffffffffffffff02191690556001915061025e565b60018101905061018d565b600091505b50919050565b6000338484846102726104ce565b808573ffffffffffffffffffffffffffffffffffffffff1673ffffffffffffffffffffffffffffffffffffffff16815260200184815260200183815260200180602001828103825283818151815260200191508051906020019080838360005b838110156102ed5780820151818401526020810190506102d2565b50505050905090810190601f16801561031a5780820380516001836020036101000a031916815260200191505b5095505050505050604051809103906000f080151561033857600080fd5b90506000805480600101828161034e91906104de565b9160005260206000209001600083909190916101000a81548173ffffffffffffffffffffffffffffffffffffffff021916908373ffffffffffffffffffffffffffffffffffffffff160217905550507f0bdb7849ed0b0249d0f995067a2ca77769f68ab4c654931e262676effeb395f23382604051808373ffffffffffffffffffffffffffffffffffffffff1673ffffffffffffffffffffffffffffffffffffffff1681526020018273ffffffffffffffffffffffffffffffffffffffff1673ffffffffffffffffffffffffffffffffffffffff1681526020019250505060405180910390a150505050565b61044261050a565b60008054806020026020016040519081016040528092919081815260200182805480156104c457602002820191906000526020600020905b8160009054906101000a900473ffffffffffffffffffffffffffffffffffffffff1673ffffffffffffffffffffffffffffffffffffffff168152602001906001019080831161047a575b5050505050905090565b604051610c728061054483390190565b81548183558181151161050557818360005260206000209182019101610504919061051e565b5b505050565b602060405190810160405280600081525090565b61054091905b8082111561053c576000816000905550600101610524565b5090565b9056006060604052341561000f57600080fd5b604051610c72380380610c72833981016040528080519060200190919080519060200190919080519060200190919080518201919050506001831015151561005657600080fd5b83600360006101000a81548173ffffffffffffffffffffffffffffffffffffffff021916908373ffffffffffffffffffffffffffffffffffffffff1602179055508242016000819055508160018190555080600490805190602001906100bd9291906100e2565b506000600560006101000a81548160ff02191690831515021790555050505050610187565b828054600181600116156101000203166002900490600052602060002090601f016020900481019282601f1061012357805160ff1916838001178555610151565b82800160010185558215610151579182015b82811115610150578251825591602001919060010190610135565b5b50905061015e9190610162565b5090565b61018491905b80821115610180576000816000905550600101610168565b5090565b90565b610adc806101966000396000f3006060604052600436106100c5576000357c0100000000000000000000000000000000000000000000000000000000900463ffffffff1680630ed5a933146100ca57806313af4035146100f75780632fc6e8b7146101305780633bd2a6781461015d5780633ccfd60b146101b25780634ee0ab0d146101df5780637e12a251146101f4578063893d20e81461021d5780639743a69114610272578063ad6cedf614610300578063b13564881461034d578063ea8a1af014610376578063f30e36581461038b575b600080fd5b34156100d557600080fd5b6100dd610395565b604051808215151515815260200191505060405180910390f35b341561010257600080fd5b61012e600480803573ffffffffffffffffffffffffffffffffffffffff169060200190919050506103ac565b005b341561013b57600080fd5b6101436103f0565b604051808215151515815260200191505060405180910390f35b341561016857600080fd5b6101706103fc565b604051808273ffffffffffffffffffffffffffffffffffffffff1673ffffffffffffffffffffffffffffffffffffffff16815260200191505060405180910390f35b34156101bd57600080fd5b6101c5610426565b604051808215151515815260200191505060405180910390f35b34156101ea57600080fd5b6101f2610626565b005b34156101ff57600080fd5b6102076106bd565b6040518082815260200191505060405180910390f35b341561022857600080fd5b6102306106c7565b604051808273ffffffffffffffffffffffffffffffffffffffff1673ffffffffffffffffffffffffffffffffffffffff16815260200191505060405180910390f35b341561027d57600080fd5b6102856106f1565b6040518080602001828103825283818151815260200191508051906020019080838360005b838110156102c55780820151818401526020810190506102aa565b50505050905090810190601f1680156102f25780820380516001836020036101000a031916815260200191505b509250505060405180910390f35b341561030b57600080fd5b610337600480803573ffffffffffffffffffffffffffffffffffffffff16906020019091905050610799565b6040518082815260200191505060405180910390f35b341561035857600080fd5b6103606107e5565b6040518082815260200191505060405180910390f35b341561038157600080fd5b6103896107ee565b005b610393610899565b005b6000600560009054906101000a900460ff16905090565b80600360006101000a81548173ffffffffffffffffffffffffffffffffffffffff021916908373ffffffffffffffffffffffffffffffffffffffff16021790555050565b60008054421015905090565b6000600260009054906101000a900473ffffffffffffffffffffffffffffffffffffffff16905090565b60008060008060005442101580610450575060011515600560009054906101000a900460ff161515145b151561045b57600080fd5b600260009054906101000a900473ffffffffffffffffffffffffffffffffffffffff1673ffffffffffffffffffffffffffffffffffffffff163373ffffffffffffffffffffffffffffffffffffffff16141515156104b857600080fd5b60009250339150600360009054906101000a900473ffffffffffffffffffffffffffffffffffffffff1673ffffffffffffffffffffffffffffffffffffffff163373ffffffffffffffffffffffffffffffffffffffff16141561053b57600260009054906101000a900473ffffffffffffffffffffffffffffffffffffffff1691505b61054482610799565b9050600081111561061d576000600660008473ffffffffffffffffffffffffffffffffffffffff1673ffffffffffffffffffffffffffffffffffffffff168152602001908152602001600020819055503373ffffffffffffffffffffffffffffffffffffffff166108fc829081150290604051600060405180830381858888f19350505050156105d7576001925061061c565b80600660008473ffffffffffffffffffffffffffffffffffffffff1673ffffffffffffffffffffffffffffffffffffffff168152602001908152602001600020819055505b5b82935050505090565b600360009054906101000a900473ffffffffffffffffffffffffffffffffffffffff1673ffffffffffffffffffffffffffffffffffffffff163373ffffffffffffffffffffffffffffffffffffffff1614151561068257600080fd5b6000544210151561069257600080fd5b60001515600560009054906101000a900460ff1615151415156106b457600080fd5b42600081905550565b6000600154905090565b6000600360009054906101000a900473ffffffffffffffffffffffffffffffffffffffff16905090565b6106f9610a9c565b60048054600181600116156101000203166002900480601f01602080910402602001604051908101604052809291908181526020018280546001816001161561010002031660029004801561078f5780601f106107645761010080835404028352916020019161078f565b820191906000526020600020905b81548152906001019060200180831161077257829003601f168201915b5050505050905090565b6000600660008373ffffffffffffffffffffffffffffffffffffffff1673ffffffffffffffffffffffffffffffffffffffff168152602001908152602001600020549050809050919050565b60008054905090565b600360009054906101000a900473ffffffffffffffffffffffffffffffffffffffff1673ffffffffffffffffffffffffffffffffffffffff163373ffffffffffffffffffffffffffffffffffffffff1614151561084a57600080fd5b6000544210151561085a57600080fd5b60001515600560009054906101000a900460ff16151514151561087c57600080fd5b6001600560006101000a81548160ff021916908315150217905550565b6000600360009054906101000a900473ffffffffffffffffffffffffffffffffffffffff1673ffffffffffffffffffffffffffffffffffffffff163373ffffffffffffffffffffffffffffffffffffffff16141515156108f857600080fd5b6000544210151561090857600080fd5b60001515600560009054906101000a900460ff16151514151561092a57600080fd5b34600660003373ffffffffffffffffffffffffffffffffffffffff1673ffffffffffffffffffffffffffffffffffffffff168152602001908152602001600020540190508060015410151561097e57600080fd5b8060018190555033600260006101000a81548173ffffffffffffffffffffffffffffffffffffffff021916908373ffffffffffffffffffffffffffffffffffffffff16021790555080600660003373ffffffffffffffffffffffffffffffffffffffff1673ffffffffffffffffffffffffffffffffffffffff168152602001908152602001600020819055507f920013593b68219a1686cf4db30fbac5fb83addce1b2f82ef2e8182c87e23d5f600260009054906101000a900473ffffffffffffffffffffffffffffffffffffffff16600154604051808373ffffffffffffffffffffffffffffffffffffffff1673ffffffffffffffffffffffffffffffffffffffff1681526020018281526020019250505060405180910390a150565b6020604051908101604052806000815250905600a165627a7a72305820da293eece0324cd7b9101708e590cd24ffe982a57a727dd4293d42cf8ca661d00029a165627a7a72305820d94e187b4677832fbf4459b515cf114c5925e4e549a25b84b9664140e2f34adc0029",
  "source": "pragma solidity ^0.4.18;\r\n\r\n\r\nimport \"./Auction.sol\";\r\n\r\ncontract AuctionFactory {\r\n    Auction[] private auctions;\r\n\r\n    event AuctionCreated(address owner, address auction);\r\n\r\n    function AuctionFactory() public {\r\n\r\n    }\r\n\r\n    function createAuction(uint duration, uint startAuctionAmount, string imageUrl) public {\r\n        Auction auction = new Auction(msg.sender, duration, startAuctionAmount, imageUrl);\r\n        auctions.push(auction);\r\n        AuctionCreated(msg.sender, auction);\r\n    }\r\n\r\n    function getAuctions() public view returns (Auction[]) {\r\n        return auctions;\r\n    }\r\n\r\n    function destroy(address auctionAddress) public returns (bool) {\r\n        for (uint i = 0; i < auctions.length; i += 1) {\r\n            if (auctionAddress == address(auctions[i])) {\r\n                delete auctions[i];\r\n                return true;\r\n            }\r\n        }\r\n\r\n        return false;\r\n    }\r\n}",
  "sourcePath": "D:\\Education\\Dapp-Auction\\DAuction\\contracts\\AuctionFactory.sol",
  "compiler": {
    "name": "solc",
    "version": "0.4.19+commit.c4cbbb05.Emscripten.clang"
  },
  "schemaVersion": "1.0.1",
  "updatedAt": "2018-03-01T08:41:08.363Z"
}