{
  "contractName": "Auction",
  "abi": [
    {
      "inputs": [
        {
          "name": "ownerInput",
          "type": "address"
        },
        {
          "name": "duration",
          "type": "uint256"
        },
        {
          "name": "startAuctionAmount",
          "type": "uint256"
        }
      ],
      "payable": false,
      "stateMutability": "nonpayable",
      "type": "constructor"
    },
    {
      "anonymous": false,
      "inputs": [
        {
          "indexed": false,
          "name": "bidder",
          "type": "address"
        },
        {
          "indexed": false,
          "name": "amount",
          "type": "uint256"
        }
      ],
      "name": "NotifyBid",
      "type": "event"
    },
    {
      "constant": false,
      "inputs": [],
      "name": "makeBid",
      "outputs": [],
      "payable": true,
      "stateMutability": "payable",
      "type": "function"
    },
    {
      "constant": false,
      "inputs": [],
      "name": "cancel",
      "outputs": [],
      "payable": false,
      "stateMutability": "nonpayable",
      "type": "function"
    },
    {
      "constant": false,
      "inputs": [],
      "name": "forceEnd",
      "outputs": [],
      "payable": false,
      "stateMutability": "nonpayable",
      "type": "function"
    },
    {
      "constant": false,
      "inputs": [],
      "name": "withdraw",
      "outputs": [],
      "payable": false,
      "stateMutability": "nonpayable",
      "type": "function"
    },
    {
      "constant": true,
      "inputs": [
        {
          "name": "bidder",
          "type": "address"
        }
      ],
      "name": "getStakeByBidder",
      "outputs": [
        {
          "name": "stake",
          "type": "uint256"
        }
      ],
      "payable": false,
      "stateMutability": "view",
      "type": "function"
    },
    {
      "constant": true,
      "inputs": [],
      "name": "getOwner",
      "outputs": [
        {
          "name": "",
          "type": "address"
        }
      ],
      "payable": false,
      "stateMutability": "view",
      "type": "function"
    },
    {
      "constant": true,
      "inputs": [],
      "name": "getMaxBid",
      "outputs": [
        {
          "name": "",
          "type": "uint256"
        }
      ],
      "payable": false,
      "stateMutability": "view",
      "type": "function"
    },
    {
      "constant": true,
      "inputs": [],
      "name": "getMaxBidder",
      "outputs": [
        {
          "name": "",
          "type": "address"
        }
      ],
      "payable": false,
      "stateMutability": "view",
      "type": "function"
    },
    {
      "constant": true,
      "inputs": [],
      "name": "isCanceled",
      "outputs": [
        {
          "name": "",
          "type": "bool"
        }
      ],
      "payable": false,
      "stateMutability": "view",
      "type": "function"
    },
    {
      "constant": true,
      "inputs": [],
      "name": "isEnd",
      "outputs": [
        {
          "name": "",
          "type": "bool"
        }
      ],
      "payable": false,
      "stateMutability": "view",
      "type": "function"
    }
  ],
  "bytecode": "0x6060604052341561000f57600080fd5b604051606080610806833981016040528080519060200190919080519060200190919080519060200190919050506001821015151561004d57600080fd5b82600360006101000a81548173ffffffffffffffffffffffffffffffffffffffff021916908373ffffffffffffffffffffffffffffffffffffffff160217905550814201600081905550806001819055506000600360146101000a81548160ff02191690831515021790555050505061073b806100cb6000396000f3006060604052600436106100a4576000357c0100000000000000000000000000000000000000000000000000000000900463ffffffff1680630ed5a933146100a95780632fc6e8b7146100d65780633bd2a678146101035780633ccfd60b146101585780634ee0ab0d1461016d5780637e12a25114610182578063893d20e8146101ab578063ad6cedf614610200578063ea8a1af01461024d578063f30e365814610262575b600080fd5b34156100b457600080fd5b6100bc61026c565b604051808215151515815260200191505060405180910390f35b34156100e157600080fd5b6100e9610283565b604051808215151515815260200191505060405180910390f35b341561010e57600080fd5b61011661028f565b604051808273ffffffffffffffffffffffffffffffffffffffff1673ffffffffffffffffffffffffffffffffffffffff16815260200191505060405180910390f35b341561016357600080fd5b61016b6102b9565b005b341561017857600080fd5b61018061034a565b005b341561018d57600080fd5b6101956103e1565b6040518082815260200191505060405180910390f35b34156101b657600080fd5b6101be6103eb565b604051808273ffffffffffffffffffffffffffffffffffffffff1673ffffffffffffffffffffffffffffffffffffffff16815260200191505060405180910390f35b341561020b57600080fd5b610237600480803573ffffffffffffffffffffffffffffffffffffffff16906020019091905050610415565b6040518082815260200191505060405180910390f35b341561025857600080fd5b610260610461565b005b61026a61050c565b005b6000600360149054906101000a900460ff16905090565b60008054421015905090565b6000600260009054906101000a900473ffffffffffffffffffffffffffffffffffffffff16905090565b60005442101515156102ca57600080fd5b60011515600360149054906101000a900460ff1615151415156102ec57600080fd5b600360009054906101000a900473ffffffffffffffffffffffffffffffffffffffff1673ffffffffffffffffffffffffffffffffffffffff163373ffffffffffffffffffffffffffffffffffffffff16141561034757610348565b5b565b600360009054906101000a900473ffffffffffffffffffffffffffffffffffffffff1673ffffffffffffffffffffffffffffffffffffffff163373ffffffffffffffffffffffffffffffffffffffff161415156103a657600080fd5b600054421015156103b657600080fd5b60001515600360149054906101000a900460ff1615151415156103d857600080fd5b42600081905550565b6000600154905090565b6000600360009054906101000a900473ffffffffffffffffffffffffffffffffffffffff16905090565b6000600460008373ffffffffffffffffffffffffffffffffffffffff1673ffffffffffffffffffffffffffffffffffffffff168152602001908152602001600020549050809050919050565b600360009054906101000a900473ffffffffffffffffffffffffffffffffffffffff1673ffffffffffffffffffffffffffffffffffffffff163373ffffffffffffffffffffffffffffffffffffffff161415156104bd57600080fd5b600054421015156104cd57600080fd5b60001515600360149054906101000a900460ff1615151415156104ef57600080fd5b6001600360146101000a81548160ff021916908315150217905550565b6000600360009054906101000a900473ffffffffffffffffffffffffffffffffffffffff1673ffffffffffffffffffffffffffffffffffffffff163373ffffffffffffffffffffffffffffffffffffffff161415151561056b57600080fd5b6000544210151561057b57600080fd5b60001515600360149054906101000a900460ff16151514151561059d57600080fd5b34600460003373ffffffffffffffffffffffffffffffffffffffff1673ffffffffffffffffffffffffffffffffffffffff16815260200190815260200160002054019050806001541015156105f157600080fd5b8060018190555033600260006101000a81548173ffffffffffffffffffffffffffffffffffffffff021916908373ffffffffffffffffffffffffffffffffffffffff16021790555080600460003373ffffffffffffffffffffffffffffffffffffffff1673ffffffffffffffffffffffffffffffffffffffff168152602001908152602001600020819055507f920013593b68219a1686cf4db30fbac5fb83addce1b2f82ef2e8182c87e23d5f600260009054906101000a900473ffffffffffffffffffffffffffffffffffffffff16600154604051808373ffffffffffffffffffffffffffffffffffffffff1673ffffffffffffffffffffffffffffffffffffffff1681526020018281526020019250505060405180910390a1505600a165627a7a7230582013e9c0a53ccb94dd9c8ac02d69f0856ce75cbc6f6e69947facc581be3bcc71190029",
  "source": "pragma solidity ^0.4.18;\r\n\r\n\r\ncontract Auction {\r\n    \r\n    modifier isOwner() {\r\n        require(msg.sender == owner);\r\n        _;\r\n    }\r\n\r\n    modifier isNotOwner() {\r\n        require(msg.sender != owner);\r\n        _;\r\n    }\r\n\r\n    modifier hasEnded() {\r\n        require(now >= dateEnd);\r\n        require(canceled == true);\r\n        _;\r\n    }\r\n\r\n    modifier hasNotEnded() {\r\n        require(now < dateEnd);\r\n        require(canceled == false);\r\n        _;\r\n    }\r\n\r\n    event NotifyBid(address bidder, uint amount);\r\n\r\n    uint private dateEnd;\r\n    uint private maxBid;\r\n    address private maxBidder;\r\n    address private owner;\r\n    bool private canceled;\r\n\r\n    mapping(address => uint) private stakeByBidder;\r\n\r\n    function Auction(address ownerInput, uint duration, uint startAuctionAmount) public {\r\n        require(duration >= 1);\r\n\r\n        owner = ownerInput;\r\n        dateEnd = now + duration;\r\n        maxBid = startAuctionAmount;\r\n        canceled = false;\r\n    }\r\n\r\n\r\n    function makeBid() public payable isNotOwner hasNotEnded {\r\n        uint bidAmount = stakeByBidder[msg.sender] + msg.value;\r\n        require(maxBid < bidAmount);\r\n\r\n        maxBid = bidAmount;\r\n        maxBidder = msg.sender;\r\n        stakeByBidder[msg.sender] = bidAmount;\r\n        NotifyBid(maxBidder, maxBid);\r\n    }\r\n\r\n    function cancel() public isOwner hasNotEnded {\r\n        canceled = true;\r\n    }\r\n\r\n    function forceEnd() public isOwner hasNotEnded {\r\n        dateEnd = now;\r\n    }\r\n\r\n    function withdraw() public hasEnded {\r\n        if (msg.sender == owner) {\r\n            \r\n        } else {\r\n\r\n        }\r\n    }\r\n    \r\n \r\n    function getStakeByBidder(address bidder) public view returns (uint stake) {\r\n        stake = stakeByBidder[bidder];\r\n        return stake;\r\n    }\r\n\r\n    function getOwner() public view returns (address) {\r\n        return owner;\r\n    }\r\n\r\n    function getMaxBid() public view returns(uint) {\r\n        return maxBid;\r\n    }\r\n\r\n    function getMaxBidder() public view returns (address) {\r\n        return maxBidder;\r\n    }\r\n\r\n    function isCanceled() public view returns (bool) {\r\n            return canceled;\r\n    }\r\n\r\n    function isEnd() public view returns (bool) {\r\n        return now >= dateEnd;\r\n    }\r\n}",
  "sourcePath": "D:\\Education\\Dapp-Auction\\DAuction\\contracts\\Auction.sol",
  "compiler": {
    "name": "solc",
    "version": "0.4.19+commit.c4cbbb05.Emscripten.clang"
  },
  "schemaVersion": "1.0.1",
  "updatedAt": "2018-02-26T10:03:03.673Z"
}