{
  "contractName": "Auction",
  "abi": [
    {
      "inputs": [
        {
          "name": "ownerInput",
          "type": "address"
        },
        {
          "name": "duration",
          "type": "uint256"
        },
        {
          "name": "startAuctionAmount",
          "type": "uint256"
        },
        {
          "name": "inputImageUrl",
          "type": "string"
        }
      ],
      "payable": false,
      "stateMutability": "nonpayable",
      "type": "constructor"
    },
    {
      "anonymous": false,
      "inputs": [
        {
          "indexed": false,
          "name": "bidder",
          "type": "address"
        },
        {
          "indexed": false,
          "name": "amount",
          "type": "uint256"
        }
      ],
      "name": "NotifyBid",
      "type": "event"
    },
    {
      "constant": false,
      "inputs": [],
      "name": "makeBid",
      "outputs": [],
      "payable": true,
      "stateMutability": "payable",
      "type": "function"
    },
    {
      "constant": false,
      "inputs": [],
      "name": "cancel",
      "outputs": [],
      "payable": false,
      "stateMutability": "nonpayable",
      "type": "function"
    },
    {
      "constant": false,
      "inputs": [],
      "name": "forceEnd",
      "outputs": [],
      "payable": false,
      "stateMutability": "nonpayable",
      "type": "function"
    },
    {
      "constant": false,
      "inputs": [],
      "name": "withdraw",
      "outputs": [],
      "payable": false,
      "stateMutability": "nonpayable",
      "type": "function"
    },
    {
      "constant": true,
      "inputs": [
        {
          "name": "bidder",
          "type": "address"
        }
      ],
      "name": "getStakeByBidder",
      "outputs": [
        {
          "name": "stake",
          "type": "uint256"
        }
      ],
      "payable": false,
      "stateMutability": "view",
      "type": "function"
    },
    {
      "constant": true,
      "inputs": [],
      "name": "getOwner",
      "outputs": [
        {
          "name": "",
          "type": "address"
        }
      ],
      "payable": false,
      "stateMutability": "view",
      "type": "function"
    },
    {
      "constant": true,
      "inputs": [],
      "name": "getMaxBid",
      "outputs": [
        {
          "name": "",
          "type": "uint256"
        }
      ],
      "payable": false,
      "stateMutability": "view",
      "type": "function"
    },
    {
      "constant": true,
      "inputs": [],
      "name": "getMaxBidder",
      "outputs": [
        {
          "name": "",
          "type": "address"
        }
      ],
      "payable": false,
      "stateMutability": "view",
      "type": "function"
    },
    {
      "constant": true,
      "inputs": [],
      "name": "isCanceled",
      "outputs": [
        {
          "name": "",
          "type": "bool"
        }
      ],
      "payable": false,
      "stateMutability": "view",
      "type": "function"
    },
    {
      "constant": true,
      "inputs": [],
      "name": "isEnd",
      "outputs": [
        {
          "name": "",
          "type": "bool"
        }
      ],
      "payable": false,
      "stateMutability": "view",
      "type": "function"
    },
    {
      "constant": true,
      "inputs": [],
      "name": "getImageUrl",
      "outputs": [
        {
          "name": "",
          "type": "string"
        }
      ],
      "payable": false,
      "stateMutability": "view",
      "type": "function"
    }
  ],
  "bytecode": "0x6060604052341561000f57600080fd5b604051610a26380380610a26833981016040528080519060200190919080519060200190919080519060200190919080518201919050506001831015151561005657600080fd5b83600360006101000a81548173ffffffffffffffffffffffffffffffffffffffff021916908373ffffffffffffffffffffffffffffffffffffffff1602179055508242016000819055508160018190555080600490805190602001906100bd9291906100e2565b506000600560006101000a81548160ff02191690831515021790555050505050610187565b828054600181600116156101000203166002900490600052602060002090601f016020900481019282601f1061012357805160ff1916838001178555610151565b82800160010185558215610151579182015b82811115610150578251825591602001919060010190610135565b5b50905061015e9190610162565b5090565b61018491905b80821115610180576000816000905550600101610168565b5090565b90565b610890806101966000396000f3006060604052600436106100af576000357c0100000000000000000000000000000000000000000000000000000000900463ffffffff1680630ed5a933146100b45780632fc6e8b7146100e15780633bd2a6781461010e5780633ccfd60b146101635780634ee0ab0d146101785780637e12a2511461018d578063893d20e8146101b65780639743a6911461020b578063ad6cedf614610299578063ea8a1af0146102e6578063f30e3658146102fb575b600080fd5b34156100bf57600080fd5b6100c7610305565b604051808215151515815260200191505060405180910390f35b34156100ec57600080fd5b6100f461031c565b604051808215151515815260200191505060405180910390f35b341561011957600080fd5b610121610328565b604051808273ffffffffffffffffffffffffffffffffffffffff1673ffffffffffffffffffffffffffffffffffffffff16815260200191505060405180910390f35b341561016e57600080fd5b610176610352565b005b341561018357600080fd5b61018b6103e3565b005b341561019857600080fd5b6101a061047a565b6040518082815260200191505060405180910390f35b34156101c157600080fd5b6101c9610484565b604051808273ffffffffffffffffffffffffffffffffffffffff1673ffffffffffffffffffffffffffffffffffffffff16815260200191505060405180910390f35b341561021657600080fd5b61021e6104ae565b6040518080602001828103825283818151815260200191508051906020019080838360005b8381101561025e578082015181840152602081019050610243565b50505050905090810190601f16801561028b5780820380516001836020036101000a031916815260200191505b509250505060405180910390f35b34156102a457600080fd5b6102d0600480803573ffffffffffffffffffffffffffffffffffffffff16906020019091905050610556565b6040518082815260200191505060405180910390f35b34156102f157600080fd5b6102f96105a2565b005b61030361064d565b005b6000600560009054906101000a900460ff16905090565b60008054421015905090565b6000600260009054906101000a900473ffffffffffffffffffffffffffffffffffffffff16905090565b600054421015151561036357600080fd5b60011515600560009054906101000a900460ff16151514151561038557600080fd5b600360009054906101000a900473ffffffffffffffffffffffffffffffffffffffff1673ffffffffffffffffffffffffffffffffffffffff163373ffffffffffffffffffffffffffffffffffffffff1614156103e0576103e1565b5b565b600360009054906101000a900473ffffffffffffffffffffffffffffffffffffffff1673ffffffffffffffffffffffffffffffffffffffff163373ffffffffffffffffffffffffffffffffffffffff1614151561043f57600080fd5b6000544210151561044f57600080fd5b60001515600560009054906101000a900460ff16151514151561047157600080fd5b42600081905550565b6000600154905090565b6000600360009054906101000a900473ffffffffffffffffffffffffffffffffffffffff16905090565b6104b6610850565b60048054600181600116156101000203166002900480601f01602080910402602001604051908101604052809291908181526020018280546001816001161561010002031660029004801561054c5780601f106105215761010080835404028352916020019161054c565b820191906000526020600020905b81548152906001019060200180831161052f57829003601f168201915b5050505050905090565b6000600660008373ffffffffffffffffffffffffffffffffffffffff1673ffffffffffffffffffffffffffffffffffffffff168152602001908152602001600020549050809050919050565b600360009054906101000a900473ffffffffffffffffffffffffffffffffffffffff1673ffffffffffffffffffffffffffffffffffffffff163373ffffffffffffffffffffffffffffffffffffffff161415156105fe57600080fd5b6000544210151561060e57600080fd5b60001515600560009054906101000a900460ff16151514151561063057600080fd5b6001600560006101000a81548160ff021916908315150217905550565b6000600360009054906101000a900473ffffffffffffffffffffffffffffffffffffffff1673ffffffffffffffffffffffffffffffffffffffff163373ffffffffffffffffffffffffffffffffffffffff16141515156106ac57600080fd5b600054421015156106bc57600080fd5b60001515600560009054906101000a900460ff1615151415156106de57600080fd5b34600660003373ffffffffffffffffffffffffffffffffffffffff1673ffffffffffffffffffffffffffffffffffffffff168152602001908152602001600020540190508060015410151561073257600080fd5b8060018190555033600260006101000a81548173ffffffffffffffffffffffffffffffffffffffff021916908373ffffffffffffffffffffffffffffffffffffffff16021790555080600660003373ffffffffffffffffffffffffffffffffffffffff1673ffffffffffffffffffffffffffffffffffffffff168152602001908152602001600020819055507f920013593b68219a1686cf4db30fbac5fb83addce1b2f82ef2e8182c87e23d5f600260009054906101000a900473ffffffffffffffffffffffffffffffffffffffff16600154604051808373ffffffffffffffffffffffffffffffffffffffff1673ffffffffffffffffffffffffffffffffffffffff1681526020018281526020019250505060405180910390a150565b6020604051908101604052806000815250905600a165627a7a723058208fe330c4799a4df4a247a3d9a2a326ecd37b5abaa06f0629b91c9415ef2e0d750029",
  "source": "pragma solidity ^0.4.18;\r\n\r\n\r\ncontract Auction {\r\n    \r\n    modifier isOwner() {\r\n        require(msg.sender == owner);\r\n        _;\r\n    }\r\n\r\n    modifier isNotOwner() {\r\n        require(msg.sender != owner);\r\n        _;\r\n    }\r\n\r\n    modifier hasEnded() {\r\n        require(now >= dateEnd);\r\n        require(canceled == true);\r\n        _;\r\n    }\r\n\r\n    modifier hasNotEnded() {\r\n        require(now < dateEnd);\r\n        require(canceled == false);\r\n        _;\r\n    }\r\n\r\n    event NotifyBid(address bidder, uint amount);\r\n\r\n    uint private dateEnd;\r\n    uint private maxBid;\r\n    address private maxBidder;\r\n    address private owner;\r\n    string private imageUrl;\r\n    bool private canceled;\r\n\r\n    mapping(address => uint) private stakeByBidder;\r\n\r\n    function Auction(address ownerInput, uint duration, uint startAuctionAmount, string inputImageUrl) public {\r\n        require(duration >= 1);\r\n\r\n        owner = ownerInput;\r\n        dateEnd = now + duration;\r\n        maxBid = startAuctionAmount;\r\n        imageUrl = inputImageUrl;\r\n        canceled = false;\r\n    }\r\n\r\n\r\n    function makeBid() public payable isNotOwner hasNotEnded {\r\n        uint bidAmount = stakeByBidder[msg.sender] + msg.value;\r\n        require(maxBid < bidAmount);\r\n\r\n        maxBid = bidAmount;\r\n        maxBidder = msg.sender;\r\n        stakeByBidder[msg.sender] = bidAmount;\r\n        NotifyBid(maxBidder, maxBid);\r\n    }\r\n\r\n    function cancel() public isOwner hasNotEnded {\r\n        canceled = true;\r\n    }\r\n\r\n    function forceEnd() public isOwner hasNotEnded {\r\n        dateEnd = now;\r\n    }\r\n\r\n    function withdraw() public hasEnded {\r\n        if (msg.sender == owner) {\r\n            \r\n        } else {\r\n\r\n        }\r\n    }\r\n    \r\n \r\n    function getStakeByBidder(address bidder) public view returns (uint stake) {\r\n        stake = stakeByBidder[bidder];\r\n        return stake;\r\n    }\r\n\r\n    function getOwner() public view returns (address) {\r\n        return owner;\r\n    }\r\n\r\n    function getMaxBid() public view returns(uint) {\r\n        return maxBid;\r\n    }\r\n\r\n    function getMaxBidder() public view returns (address) {\r\n        return maxBidder;\r\n    }\r\n\r\n    function isCanceled() public view returns (bool) {\r\n            return canceled;\r\n    }\r\n\r\n    function isEnd() public view returns (bool) {\r\n        return now >= dateEnd;\r\n    }\r\n\r\n    function getImageUrl() public view returns (string) {\r\n        return imageUrl;\r\n    }\r\n}",
  "sourcePath": "D:\\Education\\Dapp-Auction\\DAuction\\contracts\\Auction.sol",
  "compiler": {
    "name": "solc",
    "version": "0.4.19+commit.c4cbbb05.Emscripten.clang"
  },
  "schemaVersion": "1.0.1",
  "updatedAt": "2018-02-28T10:06:51.419Z"
}