{
  "contractName": "Auction",
  "abi": [
    {
      "inputs": [
        {
          "name": "ownerInput",
          "type": "address"
        },
        {
          "name": "duration",
          "type": "uint256"
        },
        {
          "name": "startAuctionAmount",
          "type": "uint256"
        },
        {
          "name": "inputImageUrl",
          "type": "string"
        }
      ],
      "payable": false,
      "stateMutability": "nonpayable",
      "type": "constructor"
    },
    {
      "anonymous": false,
      "inputs": [
        {
          "indexed": false,
          "name": "bidder",
          "type": "address"
        },
        {
          "indexed": false,
          "name": "amount",
          "type": "uint256"
        }
      ],
      "name": "NotifyBid",
      "type": "event"
    },
    {
      "constant": false,
      "inputs": [],
      "name": "makeBid",
      "outputs": [],
      "payable": true,
      "stateMutability": "payable",
      "type": "function"
    },
    {
      "constant": false,
      "inputs": [],
      "name": "cancel",
      "outputs": [],
      "payable": false,
      "stateMutability": "nonpayable",
      "type": "function"
    },
    {
      "constant": false,
      "inputs": [],
      "name": "forceEnd",
      "outputs": [],
      "payable": false,
      "stateMutability": "nonpayable",
      "type": "function"
    },
    {
      "constant": false,
      "inputs": [],
      "name": "withdraw",
      "outputs": [
        {
          "name": "",
          "type": "bool"
        }
      ],
      "payable": false,
      "stateMutability": "nonpayable",
      "type": "function"
    },
    {
      "constant": true,
      "inputs": [
        {
          "name": "bidder",
          "type": "address"
        }
      ],
      "name": "getStakeByBidder",
      "outputs": [
        {
          "name": "stake",
          "type": "uint256"
        }
      ],
      "payable": false,
      "stateMutability": "view",
      "type": "function"
    },
    {
      "constant": true,
      "inputs": [],
      "name": "getOwner",
      "outputs": [
        {
          "name": "",
          "type": "address"
        }
      ],
      "payable": false,
      "stateMutability": "view",
      "type": "function"
    },
    {
      "constant": false,
      "inputs": [
        {
          "name": "addr",
          "type": "address"
        }
      ],
      "name": "setOwner",
      "outputs": [],
      "payable": false,
      "stateMutability": "nonpayable",
      "type": "function"
    },
    {
      "constant": true,
      "inputs": [],
      "name": "getMaxBid",
      "outputs": [
        {
          "name": "",
          "type": "uint256"
        }
      ],
      "payable": false,
      "stateMutability": "view",
      "type": "function"
    },
    {
      "constant": true,
      "inputs": [],
      "name": "getMaxBidder",
      "outputs": [
        {
          "name": "",
          "type": "address"
        }
      ],
      "payable": false,
      "stateMutability": "view",
      "type": "function"
    },
    {
      "constant": true,
      "inputs": [],
      "name": "isCanceled",
      "outputs": [
        {
          "name": "",
          "type": "bool"
        }
      ],
      "payable": false,
      "stateMutability": "view",
      "type": "function"
    },
    {
      "constant": true,
      "inputs": [],
      "name": "isEnd",
      "outputs": [
        {
          "name": "",
          "type": "bool"
        }
      ],
      "payable": false,
      "stateMutability": "view",
      "type": "function"
    },
    {
      "constant": true,
      "inputs": [],
      "name": "getEndDate",
      "outputs": [
        {
          "name": "",
          "type": "uint256"
        }
      ],
      "payable": false,
      "stateMutability": "view",
      "type": "function"
    },
    {
      "constant": true,
      "inputs": [],
      "name": "getImageUrl",
      "outputs": [
        {
          "name": "",
          "type": "string"
        }
      ],
      "payable": false,
      "stateMutability": "view",
      "type": "function"
    }
  ],
  "bytecode": "0x6060604052341561000f57600080fd5b604051610c72380380610c72833981016040528080519060200190919080519060200190919080519060200190919080518201919050506001831015151561005657600080fd5b83600360006101000a81548173ffffffffffffffffffffffffffffffffffffffff021916908373ffffffffffffffffffffffffffffffffffffffff1602179055508242016000819055508160018190555080600490805190602001906100bd9291906100e2565b506000600560006101000a81548160ff02191690831515021790555050505050610187565b828054600181600116156101000203166002900490600052602060002090601f016020900481019282601f1061012357805160ff1916838001178555610151565b82800160010185558215610151579182015b82811115610150578251825591602001919060010190610135565b5b50905061015e9190610162565b5090565b61018491905b80821115610180576000816000905550600101610168565b5090565b90565b610adc806101966000396000f3006060604052600436106100c5576000357c0100000000000000000000000000000000000000000000000000000000900463ffffffff1680630ed5a933146100ca57806313af4035146100f75780632fc6e8b7146101305780633bd2a6781461015d5780633ccfd60b146101b25780634ee0ab0d146101df5780637e12a251146101f4578063893d20e81461021d5780639743a69114610272578063ad6cedf614610300578063b13564881461034d578063ea8a1af014610376578063f30e36581461038b575b600080fd5b34156100d557600080fd5b6100dd610395565b604051808215151515815260200191505060405180910390f35b341561010257600080fd5b61012e600480803573ffffffffffffffffffffffffffffffffffffffff169060200190919050506103ac565b005b341561013b57600080fd5b6101436103f0565b604051808215151515815260200191505060405180910390f35b341561016857600080fd5b6101706103fc565b604051808273ffffffffffffffffffffffffffffffffffffffff1673ffffffffffffffffffffffffffffffffffffffff16815260200191505060405180910390f35b34156101bd57600080fd5b6101c5610426565b604051808215151515815260200191505060405180910390f35b34156101ea57600080fd5b6101f2610626565b005b34156101ff57600080fd5b6102076106bd565b6040518082815260200191505060405180910390f35b341561022857600080fd5b6102306106c7565b604051808273ffffffffffffffffffffffffffffffffffffffff1673ffffffffffffffffffffffffffffffffffffffff16815260200191505060405180910390f35b341561027d57600080fd5b6102856106f1565b6040518080602001828103825283818151815260200191508051906020019080838360005b838110156102c55780820151818401526020810190506102aa565b50505050905090810190601f1680156102f25780820380516001836020036101000a031916815260200191505b509250505060405180910390f35b341561030b57600080fd5b610337600480803573ffffffffffffffffffffffffffffffffffffffff16906020019091905050610799565b6040518082815260200191505060405180910390f35b341561035857600080fd5b6103606107e5565b6040518082815260200191505060405180910390f35b341561038157600080fd5b6103896107ee565b005b610393610899565b005b6000600560009054906101000a900460ff16905090565b80600360006101000a81548173ffffffffffffffffffffffffffffffffffffffff021916908373ffffffffffffffffffffffffffffffffffffffff16021790555050565b60008054421015905090565b6000600260009054906101000a900473ffffffffffffffffffffffffffffffffffffffff16905090565b60008060008060005442101580610450575060011515600560009054906101000a900460ff161515145b151561045b57600080fd5b600260009054906101000a900473ffffffffffffffffffffffffffffffffffffffff1673ffffffffffffffffffffffffffffffffffffffff163373ffffffffffffffffffffffffffffffffffffffff16141515156104b857600080fd5b60009250339150600360009054906101000a900473ffffffffffffffffffffffffffffffffffffffff1673ffffffffffffffffffffffffffffffffffffffff163373ffffffffffffffffffffffffffffffffffffffff16141561053b57600260009054906101000a900473ffffffffffffffffffffffffffffffffffffffff1691505b61054482610799565b9050600081111561061d576000600660008473ffffffffffffffffffffffffffffffffffffffff1673ffffffffffffffffffffffffffffffffffffffff168152602001908152602001600020819055503373ffffffffffffffffffffffffffffffffffffffff166108fc829081150290604051600060405180830381858888f19350505050156105d7576001925061061c565b80600660008473ffffffffffffffffffffffffffffffffffffffff1673ffffffffffffffffffffffffffffffffffffffff168152602001908152602001600020819055505b5b82935050505090565b600360009054906101000a900473ffffffffffffffffffffffffffffffffffffffff1673ffffffffffffffffffffffffffffffffffffffff163373ffffffffffffffffffffffffffffffffffffffff1614151561068257600080fd5b6000544210151561069257600080fd5b60001515600560009054906101000a900460ff1615151415156106b457600080fd5b42600081905550565b6000600154905090565b6000600360009054906101000a900473ffffffffffffffffffffffffffffffffffffffff16905090565b6106f9610a9c565b60048054600181600116156101000203166002900480601f01602080910402602001604051908101604052809291908181526020018280546001816001161561010002031660029004801561078f5780601f106107645761010080835404028352916020019161078f565b820191906000526020600020905b81548152906001019060200180831161077257829003601f168201915b5050505050905090565b6000600660008373ffffffffffffffffffffffffffffffffffffffff1673ffffffffffffffffffffffffffffffffffffffff168152602001908152602001600020549050809050919050565b60008054905090565b600360009054906101000a900473ffffffffffffffffffffffffffffffffffffffff1673ffffffffffffffffffffffffffffffffffffffff163373ffffffffffffffffffffffffffffffffffffffff1614151561084a57600080fd5b6000544210151561085a57600080fd5b60001515600560009054906101000a900460ff16151514151561087c57600080fd5b6001600560006101000a81548160ff021916908315150217905550565b6000600360009054906101000a900473ffffffffffffffffffffffffffffffffffffffff1673ffffffffffffffffffffffffffffffffffffffff163373ffffffffffffffffffffffffffffffffffffffff16141515156108f857600080fd5b6000544210151561090857600080fd5b60001515600560009054906101000a900460ff16151514151561092a57600080fd5b34600660003373ffffffffffffffffffffffffffffffffffffffff1673ffffffffffffffffffffffffffffffffffffffff168152602001908152602001600020540190508060015410151561097e57600080fd5b8060018190555033600260006101000a81548173ffffffffffffffffffffffffffffffffffffffff021916908373ffffffffffffffffffffffffffffffffffffffff16021790555080600660003373ffffffffffffffffffffffffffffffffffffffff1673ffffffffffffffffffffffffffffffffffffffff168152602001908152602001600020819055507f920013593b68219a1686cf4db30fbac5fb83addce1b2f82ef2e8182c87e23d5f600260009054906101000a900473ffffffffffffffffffffffffffffffffffffffff16600154604051808373ffffffffffffffffffffffffffffffffffffffff1673ffffffffffffffffffffffffffffffffffffffff1681526020018281526020019250505060405180910390a150565b6020604051908101604052806000815250905600a165627a7a72305820da293eece0324cd7b9101708e590cd24ffe982a57a727dd4293d42cf8ca661d00029",
  "source": "pragma solidity ^0.4.18;\r\n\r\n\r\ncontract Auction {\r\n    \r\n    modifier isOwner() {\r\n        require(msg.sender == owner);\r\n        _;\r\n    }\r\n\r\n    modifier isNotOwner() {\r\n        require(msg.sender != owner);\r\n        _;\r\n    }\r\n\r\n    modifier hasEnded() {\r\n        require(now >= dateEnd || canceled == true);\r\n        _;\r\n    }\r\n\r\n    modifier hasNotEnded() {\r\n        require(now < dateEnd);\r\n        require(canceled == false);\r\n        _;\r\n    }\r\n\r\n    modifier hasNotMaxStake() {\r\n        require(msg.sender != maxBidder);\r\n        _;\r\n    }\r\n\r\n    event NotifyBid(address bidder, uint amount);\r\n\r\n    uint private dateEnd;\r\n    uint private maxBid;\r\n    address private maxBidder;\r\n    address private owner;\r\n    string private imageUrl;\r\n    bool private canceled;\r\n\r\n    mapping(address => uint) private stakeByBidder;\r\n\r\n    function Auction(address ownerInput, uint duration, uint startAuctionAmount, string inputImageUrl) public {\r\n        require(duration >= 1);\r\n\r\n        owner = ownerInput;\r\n        dateEnd = now + duration;\r\n        maxBid = startAuctionAmount;\r\n        imageUrl = inputImageUrl;\r\n        canceled = false;\r\n    }\r\n\r\n\r\n    function makeBid() public payable isNotOwner hasNotEnded {\r\n        uint bidAmount = stakeByBidder[msg.sender] + msg.value;\r\n        require(maxBid < bidAmount);\r\n\r\n        maxBid = bidAmount;\r\n        maxBidder = msg.sender;\r\n        stakeByBidder[msg.sender] = bidAmount;\r\n        NotifyBid(maxBidder, maxBid);\r\n    }\r\n\r\n    function cancel() public isOwner hasNotEnded {\r\n        canceled = true;\r\n    }\r\n\r\n    function forceEnd() public isOwner hasNotEnded {\r\n        dateEnd = now;\r\n    }\r\n\r\n    function withdraw() public hasEnded hasNotMaxStake returns (bool) {\r\n        bool result = false;\r\n        address stakeAccount = msg.sender;\r\n    \r\n        if (msg.sender == owner) {\r\n            stakeAccount = maxBidder;\r\n        }\r\n\r\n        uint stake = getStakeByBidder(stakeAccount);\r\n        if (stake > 0) {\r\n            stakeByBidder[stakeAccount] = 0;\r\n\r\n            if (msg.sender.send(stake)) {\r\n                result = true;\r\n            } else {\r\n                stakeByBidder[stakeAccount] = stake;\r\n            }\r\n        }\r\n\r\n        return result;\r\n    }\r\n    \r\n \r\n    function getStakeByBidder(address bidder) public view returns (uint stake) {\r\n        stake = stakeByBidder[bidder];\r\n        return stake;\r\n    }\r\n\r\n    function getOwner() public view returns (address) {\r\n        return owner;\r\n    }\r\n\r\n    function setOwner(address addr) public {\r\n        owner = addr;\r\n    }\r\n\r\n    function getMaxBid() public view returns(uint) {\r\n        return maxBid;\r\n    }\r\n\r\n    function getMaxBidder() public view returns (address) {\r\n        return maxBidder;\r\n    }\r\n\r\n    function isCanceled() public view returns (bool) {\r\n            return canceled;\r\n    }\r\n\r\n    function isEnd() public view returns (bool) {\r\n        return now >= dateEnd;\r\n    }\r\n\r\n    function getEndDate() public view returns(uint) {\r\n        return dateEnd;\r\n    }\r\n\r\n    function getImageUrl() public view returns (string) {\r\n        return imageUrl;\r\n    }\r\n}",
  "sourcePath": "D:\\Education\\Dapp-Auction\\DAuction\\contracts\\Auction.sol",
  "compiler": {
    "name": "solc",
    "version": "0.4.19+commit.c4cbbb05.Emscripten.clang"
  },
  "schemaVersion": "1.0.1",
  "updatedAt": "2018-03-01T08:41:08.365Z"
}