{
  "contractName": "AuctionFactory",
  "abi": [
    {
      "inputs": [],
      "payable": false,
      "stateMutability": "nonpayable",
      "type": "constructor"
    },
    {
      "anonymous": false,
      "inputs": [
        {
          "indexed": false,
          "name": "owner",
          "type": "address"
        },
        {
          "indexed": false,
          "name": "auction",
          "type": "address"
        }
      ],
      "name": "AuctionCreated",
      "type": "event"
    },
    {
      "constant": false,
      "inputs": [
        {
          "name": "duration",
          "type": "uint256"
        },
        {
          "name": "startAuctionAmount",
          "type": "uint256"
        },
        {
          "name": "imageUrl",
          "type": "string"
        }
      ],
      "name": "createAuction",
      "outputs": [],
      "payable": false,
      "stateMutability": "nonpayable",
      "type": "function"
    },
    {
      "constant": true,
      "inputs": [],
      "name": "getAuctions",
      "outputs": [
        {
          "name": "",
          "type": "address[]"
        }
      ],
      "payable": false,
      "stateMutability": "view",
      "type": "function"
    }
  ],
  "bytecode": "0x6060604052341561000f57600080fd5b61101f8061001e6000396000f30060606040526004361061004c576000357c0100000000000000000000000000000000000000000000000000000000900463ffffffff1680634736b35914610051578063d7c06919146100c0575b600080fd5b341561005c57600080fd5b6100be600480803590602001909190803590602001909190803590602001908201803590602001908080601f0160208091040260200160405190810160405280939291908181526020018383808284378201915050505050509190505061012a565b005b34156100cb57600080fd5b6100d3610300565b6040518080602001828103825283818151815260200191508051906020019060200280838360005b838110156101165780820151818401526020810190506100fb565b505050509050019250505060405180910390f35b600033848484610138610394565b808573ffffffffffffffffffffffffffffffffffffffff1673ffffffffffffffffffffffffffffffffffffffff16815260200184815260200183815260200180602001828103825283818151815260200191508051906020019080838360005b838110156101b3578082015181840152602081019050610198565b50505050905090810190601f1680156101e05780820380516001836020036101000a031916815260200191505b5095505050505050604051809103906000f08015156101fe57600080fd5b90506000805480600101828161021491906103a4565b9160005260206000209001600083909190916101000a81548173ffffffffffffffffffffffffffffffffffffffff021916908373ffffffffffffffffffffffffffffffffffffffff160217905550507f0bdb7849ed0b0249d0f995067a2ca77769f68ab4c654931e262676effeb395f23382604051808373ffffffffffffffffffffffffffffffffffffffff1673ffffffffffffffffffffffffffffffffffffffff1681526020018273ffffffffffffffffffffffffffffffffffffffff1673ffffffffffffffffffffffffffffffffffffffff1681526020019250505060405180910390a150505050565b6103086103d0565b600080548060200260200160405190810160405280929190818152602001828054801561038a57602002820191906000526020600020905b8160009054906101000a900473ffffffffffffffffffffffffffffffffffffffff1673ffffffffffffffffffffffffffffffffffffffff1681526020019060010190808311610340575b5050505050905090565b604051610bea8061040a83390190565b8154818355818115116103cb578183600052602060002091820191016103ca91906103e4565b5b505050565b602060405190810160405280600081525090565b61040691905b808211156104025760008160009055506001016103ea565b5090565b9056006060604052341561000f57600080fd5b604051610bea380380610bea833981016040528080519060200190919080519060200190919080519060200190919080518201919050506001831015151561005657600080fd5b83600360006101000a81548173ffffffffffffffffffffffffffffffffffffffff021916908373ffffffffffffffffffffffffffffffffffffffff1602179055508242016000819055508160018190555080600490805190602001906100bd9291906100e2565b506000600560006101000a81548160ff02191690831515021790555050505050610187565b828054600181600116156101000203166002900490600052602060002090601f016020900481019282601f1061012357805160ff1916838001178555610151565b82800160010185558215610151579182015b82811115610150578251825591602001919060010190610135565b5b50905061015e9190610162565b5090565b61018491905b80821115610180576000816000905550600101610168565b5090565b90565b610a54806101966000396000f3006060604052600436106100ba576000357c0100000000000000000000000000000000000000000000000000000000900463ffffffff1680630ed5a933146100bf5780632fc6e8b7146100ec5780633bd2a678146101195780633ccfd60b1461016e5780634ee0ab0d1461019b5780637e12a251146101b0578063893d20e8146101d95780639743a6911461022e578063ad6cedf6146102bc578063b135648814610309578063ea8a1af014610332578063f30e365814610347575b600080fd5b34156100ca57600080fd5b6100d2610351565b604051808215151515815260200191505060405180910390f35b34156100f757600080fd5b6100ff610368565b604051808215151515815260200191505060405180910390f35b341561012457600080fd5b61012c610374565b604051808273ffffffffffffffffffffffffffffffffffffffff1673ffffffffffffffffffffffffffffffffffffffff16815260200191505060405180910390f35b341561017957600080fd5b61018161039e565b604051808215151515815260200191505060405180910390f35b34156101a657600080fd5b6101ae61059e565b005b34156101bb57600080fd5b6101c3610635565b6040518082815260200191505060405180910390f35b34156101e457600080fd5b6101ec61063f565b604051808273ffffffffffffffffffffffffffffffffffffffff1673ffffffffffffffffffffffffffffffffffffffff16815260200191505060405180910390f35b341561023957600080fd5b610241610669565b6040518080602001828103825283818151815260200191508051906020019080838360005b83811015610281578082015181840152602081019050610266565b50505050905090810190601f1680156102ae5780820380516001836020036101000a031916815260200191505b509250505060405180910390f35b34156102c757600080fd5b6102f3600480803573ffffffffffffffffffffffffffffffffffffffff16906020019091905050610711565b6040518082815260200191505060405180910390f35b341561031457600080fd5b61031c61075d565b6040518082815260200191505060405180910390f35b341561033d57600080fd5b610345610766565b005b61034f610811565b005b6000600560009054906101000a900460ff16905090565b60008054421015905090565b6000600260009054906101000a900473ffffffffffffffffffffffffffffffffffffffff16905090565b600080600080600054421015806103c8575060011515600560009054906101000a900460ff161515145b15156103d357600080fd5b600260009054906101000a900473ffffffffffffffffffffffffffffffffffffffff1673ffffffffffffffffffffffffffffffffffffffff163373ffffffffffffffffffffffffffffffffffffffff161415151561043057600080fd5b60009250339150600360009054906101000a900473ffffffffffffffffffffffffffffffffffffffff1673ffffffffffffffffffffffffffffffffffffffff163373ffffffffffffffffffffffffffffffffffffffff1614156104b357600260009054906101000a900473ffffffffffffffffffffffffffffffffffffffff1691505b6104bc82610711565b90506000811115610595576000600660008473ffffffffffffffffffffffffffffffffffffffff1673ffffffffffffffffffffffffffffffffffffffff168152602001908152602001600020819055503373ffffffffffffffffffffffffffffffffffffffff166108fc829081150290604051600060405180830381858888f193505050501561054f5760019250610594565b80600660008473ffffffffffffffffffffffffffffffffffffffff1673ffffffffffffffffffffffffffffffffffffffff168152602001908152602001600020819055505b5b82935050505090565b600360009054906101000a900473ffffffffffffffffffffffffffffffffffffffff1673ffffffffffffffffffffffffffffffffffffffff163373ffffffffffffffffffffffffffffffffffffffff161415156105fa57600080fd5b6000544210151561060a57600080fd5b60001515600560009054906101000a900460ff16151514151561062c57600080fd5b42600081905550565b6000600154905090565b6000600360009054906101000a900473ffffffffffffffffffffffffffffffffffffffff16905090565b610671610a14565b60048054600181600116156101000203166002900480601f0160208091040260200160405190810160405280929190818152602001828054600181600116156101000203166002900480156107075780601f106106dc57610100808354040283529160200191610707565b820191906000526020600020905b8154815290600101906020018083116106ea57829003601f168201915b5050505050905090565b6000600660008373ffffffffffffffffffffffffffffffffffffffff1673ffffffffffffffffffffffffffffffffffffffff168152602001908152602001600020549050809050919050565b60008054905090565b600360009054906101000a900473ffffffffffffffffffffffffffffffffffffffff1673ffffffffffffffffffffffffffffffffffffffff163373ffffffffffffffffffffffffffffffffffffffff161415156107c257600080fd5b600054421015156107d257600080fd5b60001515600560009054906101000a900460ff1615151415156107f457600080fd5b6001600560006101000a81548160ff021916908315150217905550565b6000600360009054906101000a900473ffffffffffffffffffffffffffffffffffffffff1673ffffffffffffffffffffffffffffffffffffffff163373ffffffffffffffffffffffffffffffffffffffff161415151561087057600080fd5b6000544210151561088057600080fd5b60001515600560009054906101000a900460ff1615151415156108a257600080fd5b34600660003373ffffffffffffffffffffffffffffffffffffffff1673ffffffffffffffffffffffffffffffffffffffff16815260200190815260200160002054019050806001541015156108f657600080fd5b8060018190555033600260006101000a81548173ffffffffffffffffffffffffffffffffffffffff021916908373ffffffffffffffffffffffffffffffffffffffff16021790555080600660003373ffffffffffffffffffffffffffffffffffffffff1673ffffffffffffffffffffffffffffffffffffffff168152602001908152602001600020819055507f920013593b68219a1686cf4db30fbac5fb83addce1b2f82ef2e8182c87e23d5f600260009054906101000a900473ffffffffffffffffffffffffffffffffffffffff16600154604051808373ffffffffffffffffffffffffffffffffffffffff1673ffffffffffffffffffffffffffffffffffffffff1681526020018281526020019250505060405180910390a150565b6020604051908101604052806000815250905600a165627a7a7230582002a65c4f001961aa5881fe74da37fe171db744705948616a438a96a071e876050029a165627a7a72305820aa6e79899fb763816f44498eaa9f1e96fd279974291389cae6bac6dae87c482a0029",
  "source": "pragma solidity ^0.4.18;\r\n\r\n\r\nimport \"./Auction.sol\";\r\n\r\ncontract AuctionFactory {\r\n    Auction[] private auctions;\r\n\r\n    event AuctionCreated(address owner, address auction);\r\n\r\n    function AuctionFactory() public {\r\n\r\n    }\r\n\r\n    function createAuction(uint duration, uint startAuctionAmount, string imageUrl) public {\r\n        Auction auction = new Auction(msg.sender, duration, startAuctionAmount, imageUrl);\r\n        auctions.push(auction);\r\n        AuctionCreated(msg.sender, auction);\r\n    }\r\n\r\n    function getAuctions() public view returns (Auction[]) {\r\n        return auctions;\r\n    }\r\n}",
  "sourcePath": "D:\\Education\\Dapp-Auction\\DAuction\\contracts\\AuctionFactory.sol",
  "compiler": {
    "name": "solc",
    "version": "0.4.19+commit.c4cbbb05.Emscripten.clang"
  },
  "schemaVersion": "1.0.1",
  "updatedAt": "2018-02-28T14:52:49.708Z"
}