{
  "contractName": "AuctionFactory",
  "abi": [
    {
      "inputs": [],
      "payable": false,
      "stateMutability": "nonpayable",
      "type": "constructor"
    },
    {
      "anonymous": false,
      "inputs": [
        {
          "indexed": false,
          "name": "owner",
          "type": "address"
        },
        {
          "indexed": false,
          "name": "auction",
          "type": "address"
        }
      ],
      "name": "AuctionCreated",
      "type": "event"
    },
    {
      "constant": false,
      "inputs": [
        {
          "name": "duration",
          "type": "uint256"
        },
        {
          "name": "startAuctionAmount",
          "type": "uint256"
        }
      ],
      "name": "createAuction",
      "outputs": [],
      "payable": false,
      "stateMutability": "nonpayable",
      "type": "function"
    },
    {
      "constant": true,
      "inputs": [],
      "name": "getAuctions",
      "outputs": [
        {
          "name": "",
          "type": "address[]"
        }
      ],
      "payable": false,
      "stateMutability": "view",
      "type": "function"
    }
  ],
  "bytecode": "0x6060604052341561000f57600080fd5b610b8a8061001e6000396000f30060606040526004361061004c576000357c0100000000000000000000000000000000000000000000000000000000900463ffffffff1680630121683f14610051578063d7c069191461007d575b600080fd5b341561005c57600080fd5b61007b60048080359060200190919080359060200190919050506100e7565b005b341561008857600080fd5b61009061024f565b6040518080602001828103825283818151815260200191508051906020019060200280838360005b838110156100d35780820151818401526020810190506100b8565b505050509050019250505060405180910390f35b60003383836100f46102e3565b808473ffffffffffffffffffffffffffffffffffffffff1673ffffffffffffffffffffffffffffffffffffffff1681526020018381526020018281526020019350505050604051809103906000f080151561014e57600080fd5b90506000805480600101828161016491906102f3565b9160005260206000209001600083909190916101000a81548173ffffffffffffffffffffffffffffffffffffffff021916908373ffffffffffffffffffffffffffffffffffffffff160217905550507f0bdb7849ed0b0249d0f995067a2ca77769f68ab4c654931e262676effeb395f23382604051808373ffffffffffffffffffffffffffffffffffffffff1673ffffffffffffffffffffffffffffffffffffffff1681526020018273ffffffffffffffffffffffffffffffffffffffff1673ffffffffffffffffffffffffffffffffffffffff1681526020019250505060405180910390a1505050565b61025761031f565b60008054806020026020016040519081016040528092919081815260200182805480156102d957602002820191906000526020600020905b8160009054906101000a900473ffffffffffffffffffffffffffffffffffffffff1673ffffffffffffffffffffffffffffffffffffffff168152602001906001019080831161028f575b5050505050905090565b6040516108068061035983390190565b81548183558181151161031a578183600052602060002091820191016103199190610333565b5b505050565b602060405190810160405280600081525090565b61035591905b80821115610351576000816000905550600101610339565b5090565b9056006060604052341561000f57600080fd5b604051606080610806833981016040528080519060200190919080519060200190919080519060200190919050506001821015151561004d57600080fd5b82600360006101000a81548173ffffffffffffffffffffffffffffffffffffffff021916908373ffffffffffffffffffffffffffffffffffffffff160217905550814201600081905550806001819055506000600360146101000a81548160ff02191690831515021790555050505061073b806100cb6000396000f3006060604052600436106100a4576000357c0100000000000000000000000000000000000000000000000000000000900463ffffffff1680630ed5a933146100a95780632fc6e8b7146100d65780633bd2a678146101035780633ccfd60b146101585780634ee0ab0d1461016d5780637e12a25114610182578063893d20e8146101ab578063ad6cedf614610200578063ea8a1af01461024d578063f30e365814610262575b600080fd5b34156100b457600080fd5b6100bc61026c565b604051808215151515815260200191505060405180910390f35b34156100e157600080fd5b6100e9610283565b604051808215151515815260200191505060405180910390f35b341561010e57600080fd5b61011661028f565b604051808273ffffffffffffffffffffffffffffffffffffffff1673ffffffffffffffffffffffffffffffffffffffff16815260200191505060405180910390f35b341561016357600080fd5b61016b6102b9565b005b341561017857600080fd5b61018061034a565b005b341561018d57600080fd5b6101956103e1565b6040518082815260200191505060405180910390f35b34156101b657600080fd5b6101be6103eb565b604051808273ffffffffffffffffffffffffffffffffffffffff1673ffffffffffffffffffffffffffffffffffffffff16815260200191505060405180910390f35b341561020b57600080fd5b610237600480803573ffffffffffffffffffffffffffffffffffffffff16906020019091905050610415565b6040518082815260200191505060405180910390f35b341561025857600080fd5b610260610461565b005b61026a61050c565b005b6000600360149054906101000a900460ff16905090565b60008054421015905090565b6000600260009054906101000a900473ffffffffffffffffffffffffffffffffffffffff16905090565b60005442101515156102ca57600080fd5b60011515600360149054906101000a900460ff1615151415156102ec57600080fd5b600360009054906101000a900473ffffffffffffffffffffffffffffffffffffffff1673ffffffffffffffffffffffffffffffffffffffff163373ffffffffffffffffffffffffffffffffffffffff16141561034757610348565b5b565b600360009054906101000a900473ffffffffffffffffffffffffffffffffffffffff1673ffffffffffffffffffffffffffffffffffffffff163373ffffffffffffffffffffffffffffffffffffffff161415156103a657600080fd5b600054421015156103b657600080fd5b60001515600360149054906101000a900460ff1615151415156103d857600080fd5b42600081905550565b6000600154905090565b6000600360009054906101000a900473ffffffffffffffffffffffffffffffffffffffff16905090565b6000600460008373ffffffffffffffffffffffffffffffffffffffff1673ffffffffffffffffffffffffffffffffffffffff168152602001908152602001600020549050809050919050565b600360009054906101000a900473ffffffffffffffffffffffffffffffffffffffff1673ffffffffffffffffffffffffffffffffffffffff163373ffffffffffffffffffffffffffffffffffffffff161415156104bd57600080fd5b600054421015156104cd57600080fd5b60001515600360149054906101000a900460ff1615151415156104ef57600080fd5b6001600360146101000a81548160ff021916908315150217905550565b6000600360009054906101000a900473ffffffffffffffffffffffffffffffffffffffff1673ffffffffffffffffffffffffffffffffffffffff163373ffffffffffffffffffffffffffffffffffffffff161415151561056b57600080fd5b6000544210151561057b57600080fd5b60001515600360149054906101000a900460ff16151514151561059d57600080fd5b34600460003373ffffffffffffffffffffffffffffffffffffffff1673ffffffffffffffffffffffffffffffffffffffff16815260200190815260200160002054019050806001541015156105f157600080fd5b8060018190555033600260006101000a81548173ffffffffffffffffffffffffffffffffffffffff021916908373ffffffffffffffffffffffffffffffffffffffff16021790555080600460003373ffffffffffffffffffffffffffffffffffffffff1673ffffffffffffffffffffffffffffffffffffffff168152602001908152602001600020819055507f920013593b68219a1686cf4db30fbac5fb83addce1b2f82ef2e8182c87e23d5f600260009054906101000a900473ffffffffffffffffffffffffffffffffffffffff16600154604051808373ffffffffffffffffffffffffffffffffffffffff1673ffffffffffffffffffffffffffffffffffffffff1681526020018281526020019250505060405180910390a1505600a165627a7a7230582013e9c0a53ccb94dd9c8ac02d69f0856ce75cbc6f6e69947facc581be3bcc71190029a165627a7a72305820a3e8fdcdc0fa8b37ad6a945140c485560eaba50580f5d265c374356558567ebd0029",
  "source": "pragma solidity ^0.4.18;\r\n\r\n\r\nimport \"./Auction.sol\";\r\n\r\ncontract AuctionFactory {\r\n    Auction[] private auctions;\r\n\r\n    event AuctionCreated(address owner, address auction);\r\n\r\n    function AuctionFactory() public {\r\n\r\n    }\r\n\r\n    function createAuction(uint duration, uint startAuctionAmount) public {\r\n        Auction auction = new Auction(msg.sender, duration, startAuctionAmount);\r\n        auctions.push(auction);\r\n        AuctionCreated(msg.sender, auction);\r\n    }\r\n\r\n    function getAuctions() public view returns (Auction[]) {\r\n        return auctions;\r\n    }\r\n}",
  "sourcePath": "D:\\Education\\Dapp-Auction\\DAuction\\contracts\\AuctionFactory.sol",
  "compiler": {
    "name": "solc",
    "version": "0.4.19+commit.c4cbbb05.Emscripten.clang"
  },
  "schemaVersion": "1.0.1",
  "updatedAt": "2018-02-27T09:36:04.456Z"
}