{
  "contractName": "AuctionFactory",
  "abi": [
    {
      "anonymous": false,
      "inputs": [
        {
          "indexed": false,
          "name": "owner",
          "type": "address"
        },
        {
          "indexed": false,
          "name": "auction",
          "type": "address"
        }
      ],
      "name": "AuctionCreated",
      "type": "event"
    },
    {
      "constant": false,
      "inputs": [
        {
          "name": "duration",
          "type": "uint256"
        },
        {
          "name": "startAuctionAmount",
          "type": "uint256"
        }
      ],
      "name": "createAuction",
      "outputs": [],
      "payable": false,
      "stateMutability": "nonpayable",
      "type": "function"
    },
    {
      "constant": true,
      "inputs": [],
      "name": "getAuctions",
      "outputs": [
        {
          "name": "",
          "type": "address[]"
        }
      ],
      "payable": false,
      "stateMutability": "view",
      "type": "function"
    }
  ],
  "bytecode": "0x6060604052341561000f57600080fd5b610af78061001e6000396000f30060606040526004361061004c576000357c0100000000000000000000000000000000000000000000000000000000900463ffffffff1680630121683f14610051578063d7c069191461007d575b600080fd5b341561005c57600080fd5b61007b60048080359060200190919080359060200190919050506100e7565b005b341561008857600080fd5b61009061024f565b6040518080602001828103825283818151815260200191508051906020019060200280838360005b838110156100d35780820151818401526020810190506100b8565b505050509050019250505060405180910390f35b60003383836100f46102e3565b808473ffffffffffffffffffffffffffffffffffffffff1673ffffffffffffffffffffffffffffffffffffffff1681526020018381526020018281526020019350505050604051809103906000f080151561014e57600080fd5b90506000805480600101828161016491906102f3565b9160005260206000209001600083909190916101000a81548173ffffffffffffffffffffffffffffffffffffffff021916908373ffffffffffffffffffffffffffffffffffffffff160217905550507f0bdb7849ed0b0249d0f995067a2ca77769f68ab4c654931e262676effeb395f23382604051808373ffffffffffffffffffffffffffffffffffffffff1673ffffffffffffffffffffffffffffffffffffffff1681526020018273ffffffffffffffffffffffffffffffffffffffff1673ffffffffffffffffffffffffffffffffffffffff1681526020019250505060405180910390a1505050565b61025761031f565b60008054806020026020016040519081016040528092919081815260200182805480156102d957602002820191906000526020600020905b8160009054906101000a900473ffffffffffffffffffffffffffffffffffffffff1673ffffffffffffffffffffffffffffffffffffffff168152602001906001019080831161028f575b5050505050905090565b6040516107738061035983390190565b81548183558181151161031a578183600052602060002091820191016103199190610333565b5b505050565b602060405190810160405280600081525090565b61035591905b80821115610351576000816000905550600101610339565b5090565b9056006060604052341561000f57600080fd5b604051606080610773833981016040528080519060200190919080519060200190919080519060200190919050506001821015151561004d57600080fd5b82600360006101000a81548173ffffffffffffffffffffffffffffffffffffffff021916908373ffffffffffffffffffffffffffffffffffffffff160217905550814201600081905550806001819055506000600360146101000a81548160ff0219169083151502179055505050506106a8806100cb6000396000f30060606040526004361061008e576000357c0100000000000000000000000000000000000000000000000000000000900463ffffffff1680633bd2a678146100935780633ccfd60b146100e85780634ee0ab0d146100fd5780637e12a25114610112578063893d20e81461013b578063ad6cedf614610190578063ea8a1af0146101dd578063f30e3658146101f2575b600080fd5b341561009e57600080fd5b6100a66101fc565b604051808273ffffffffffffffffffffffffffffffffffffffff1673ffffffffffffffffffffffffffffffffffffffff16815260200191505060405180910390f35b34156100f357600080fd5b6100fb610226565b005b341561010857600080fd5b6101106102b7565b005b341561011d57600080fd5b61012561034e565b6040518082815260200191505060405180910390f35b341561014657600080fd5b61014e610358565b604051808273ffffffffffffffffffffffffffffffffffffffff1673ffffffffffffffffffffffffffffffffffffffff16815260200191505060405180910390f35b341561019b57600080fd5b6101c7600480803573ffffffffffffffffffffffffffffffffffffffff16906020019091905050610382565b6040518082815260200191505060405180910390f35b34156101e857600080fd5b6101f06103ce565b005b6101fa610479565b005b6000600260009054906101000a900473ffffffffffffffffffffffffffffffffffffffff16905090565b600054421015151561023757600080fd5b60011515600360149054906101000a900460ff16151514151561025957600080fd5b600360009054906101000a900473ffffffffffffffffffffffffffffffffffffffff1673ffffffffffffffffffffffffffffffffffffffff163373ffffffffffffffffffffffffffffffffffffffff1614156102b4576102b5565b5b565b600360009054906101000a900473ffffffffffffffffffffffffffffffffffffffff1673ffffffffffffffffffffffffffffffffffffffff163373ffffffffffffffffffffffffffffffffffffffff1614151561031357600080fd5b6000544210151561032357600080fd5b60001515600360149054906101000a900460ff16151514151561034557600080fd5b42600081905550565b6000600154905090565b6000600360009054906101000a900473ffffffffffffffffffffffffffffffffffffffff16905090565b6000600460008373ffffffffffffffffffffffffffffffffffffffff1673ffffffffffffffffffffffffffffffffffffffff168152602001908152602001600020549050809050919050565b600360009054906101000a900473ffffffffffffffffffffffffffffffffffffffff1673ffffffffffffffffffffffffffffffffffffffff163373ffffffffffffffffffffffffffffffffffffffff1614151561042a57600080fd5b6000544210151561043a57600080fd5b60001515600360149054906101000a900460ff16151514151561045c57600080fd5b6001600360146101000a81548160ff021916908315150217905550565b6000600360009054906101000a900473ffffffffffffffffffffffffffffffffffffffff1673ffffffffffffffffffffffffffffffffffffffff163373ffffffffffffffffffffffffffffffffffffffff16141515156104d857600080fd5b600054421015156104e857600080fd5b60001515600360149054906101000a900460ff16151514151561050a57600080fd5b34600460003373ffffffffffffffffffffffffffffffffffffffff1673ffffffffffffffffffffffffffffffffffffffff168152602001908152602001600020540190508060015410151561055e57600080fd5b8060018190555033600260006101000a81548173ffffffffffffffffffffffffffffffffffffffff021916908373ffffffffffffffffffffffffffffffffffffffff16021790555080600460003373ffffffffffffffffffffffffffffffffffffffff1673ffffffffffffffffffffffffffffffffffffffff168152602001908152602001600020819055507f920013593b68219a1686cf4db30fbac5fb83addce1b2f82ef2e8182c87e23d5f600260009054906101000a900473ffffffffffffffffffffffffffffffffffffffff16600154604051808373ffffffffffffffffffffffffffffffffffffffff1673ffffffffffffffffffffffffffffffffffffffff1681526020018281526020019250505060405180910390a1505600a165627a7a72305820c88904fa699c1494283dd0ddd649159270fa5dfb3ae0e9cd5189d9735ed04fc70029a165627a7a72305820af2130277cb940bb2823ddb66ede8885632cba1d27fd25be396aedadb8e72db30029",
  "source": "pragma solidity ^0.4.18;\r\n\r\n\r\nimport \"./Auction.sol\";\r\n\r\ncontract AuctionFactory {\r\n    Auction[] private auctions;\r\n\r\n    event AuctionCreated(address owner, address auction);\r\n\r\n    function createAuction(uint duration, uint startAuctionAmount) public {\r\n        Auction auction = new Auction(msg.sender, duration, startAuctionAmount);\r\n        auctions.push(auction);\r\n        AuctionCreated(msg.sender, auction);\r\n    }\r\n\r\n    function getAuctions() public view returns (Auction[]) {\r\n        return auctions;\r\n    }\r\n}",
  "sourcePath": "D:\\Education\\Dapp-Auction\\DAuction\\contracts\\AuctionFactory.sol",
  "compiler": {
    "name": "solc",
    "version": "0.4.19+commit.c4cbbb05.Emscripten.clang"
  },
  "schemaVersion": "1.0.1",
  "updatedAt": "2018-02-25T15:13:10.894Z"
}