{
  "contractName": "AuctionFactory",
  "abi": [
    {
      "inputs": [],
      "payable": false,
      "stateMutability": "nonpayable",
      "type": "constructor"
    },
    {
      "anonymous": false,
      "inputs": [
        {
          "indexed": false,
          "name": "owner",
          "type": "address"
        },
        {
          "indexed": false,
          "name": "auction",
          "type": "address"
        }
      ],
      "name": "AuctionCreated",
      "type": "event"
    },
    {
      "constant": false,
      "inputs": [
        {
          "name": "duration",
          "type": "uint256"
        },
        {
          "name": "startAuctionAmount",
          "type": "uint256"
        },
        {
          "name": "imageUrl",
          "type": "string"
        }
      ],
      "name": "createAuction",
      "outputs": [],
      "payable": false,
      "stateMutability": "nonpayable",
      "type": "function"
    },
    {
      "constant": true,
      "inputs": [],
      "name": "getAuctions",
      "outputs": [
        {
          "name": "",
          "type": "address[]"
        }
      ],
      "payable": false,
      "stateMutability": "view",
      "type": "function"
    }
  ],
  "bytecode": "0x6060604052341561000f57600080fd5b610e5b8061001e6000396000f30060606040526004361061004c576000357c0100000000000000000000000000000000000000000000000000000000900463ffffffff1680634736b35914610051578063d7c06919146100c0575b600080fd5b341561005c57600080fd5b6100be600480803590602001909190803590602001909190803590602001908201803590602001908080601f0160208091040260200160405190810160405280939291908181526020018383808284378201915050505050509190505061012a565b005b34156100cb57600080fd5b6100d3610300565b6040518080602001828103825283818151815260200191508051906020019060200280838360005b838110156101165780820151818401526020810190506100fb565b505050509050019250505060405180910390f35b600033848484610138610394565b808573ffffffffffffffffffffffffffffffffffffffff1673ffffffffffffffffffffffffffffffffffffffff16815260200184815260200183815260200180602001828103825283818151815260200191508051906020019080838360005b838110156101b3578082015181840152602081019050610198565b50505050905090810190601f1680156101e05780820380516001836020036101000a031916815260200191505b5095505050505050604051809103906000f08015156101fe57600080fd5b90506000805480600101828161021491906103a4565b9160005260206000209001600083909190916101000a81548173ffffffffffffffffffffffffffffffffffffffff021916908373ffffffffffffffffffffffffffffffffffffffff160217905550507f0bdb7849ed0b0249d0f995067a2ca77769f68ab4c654931e262676effeb395f23382604051808373ffffffffffffffffffffffffffffffffffffffff1673ffffffffffffffffffffffffffffffffffffffff1681526020018273ffffffffffffffffffffffffffffffffffffffff1673ffffffffffffffffffffffffffffffffffffffff1681526020019250505060405180910390a150505050565b6103086103d0565b600080548060200260200160405190810160405280929190818152602001828054801561038a57602002820191906000526020600020905b8160009054906101000a900473ffffffffffffffffffffffffffffffffffffffff1673ffffffffffffffffffffffffffffffffffffffff1681526020019060010190808311610340575b5050505050905090565b604051610a268061040a83390190565b8154818355818115116103cb578183600052602060002091820191016103ca91906103e4565b5b505050565b602060405190810160405280600081525090565b61040691905b808211156104025760008160009055506001016103ea565b5090565b9056006060604052341561000f57600080fd5b604051610a26380380610a26833981016040528080519060200190919080519060200190919080519060200190919080518201919050506001831015151561005657600080fd5b83600360006101000a81548173ffffffffffffffffffffffffffffffffffffffff021916908373ffffffffffffffffffffffffffffffffffffffff1602179055508242016000819055508160018190555080600490805190602001906100bd9291906100e2565b506000600560006101000a81548160ff02191690831515021790555050505050610187565b828054600181600116156101000203166002900490600052602060002090601f016020900481019282601f1061012357805160ff1916838001178555610151565b82800160010185558215610151579182015b82811115610150578251825591602001919060010190610135565b5b50905061015e9190610162565b5090565b61018491905b80821115610180576000816000905550600101610168565b5090565b90565b610890806101966000396000f3006060604052600436106100af576000357c0100000000000000000000000000000000000000000000000000000000900463ffffffff1680630ed5a933146100b45780632fc6e8b7146100e15780633bd2a6781461010e5780633ccfd60b146101635780634ee0ab0d146101785780637e12a2511461018d578063893d20e8146101b65780639743a6911461020b578063ad6cedf614610299578063ea8a1af0146102e6578063f30e3658146102fb575b600080fd5b34156100bf57600080fd5b6100c7610305565b604051808215151515815260200191505060405180910390f35b34156100ec57600080fd5b6100f461031c565b604051808215151515815260200191505060405180910390f35b341561011957600080fd5b610121610328565b604051808273ffffffffffffffffffffffffffffffffffffffff1673ffffffffffffffffffffffffffffffffffffffff16815260200191505060405180910390f35b341561016e57600080fd5b610176610352565b005b341561018357600080fd5b61018b6103e3565b005b341561019857600080fd5b6101a061047a565b6040518082815260200191505060405180910390f35b34156101c157600080fd5b6101c9610484565b604051808273ffffffffffffffffffffffffffffffffffffffff1673ffffffffffffffffffffffffffffffffffffffff16815260200191505060405180910390f35b341561021657600080fd5b61021e6104ae565b6040518080602001828103825283818151815260200191508051906020019080838360005b8381101561025e578082015181840152602081019050610243565b50505050905090810190601f16801561028b5780820380516001836020036101000a031916815260200191505b509250505060405180910390f35b34156102a457600080fd5b6102d0600480803573ffffffffffffffffffffffffffffffffffffffff16906020019091905050610556565b6040518082815260200191505060405180910390f35b34156102f157600080fd5b6102f96105a2565b005b61030361064d565b005b6000600560009054906101000a900460ff16905090565b60008054421015905090565b6000600260009054906101000a900473ffffffffffffffffffffffffffffffffffffffff16905090565b600054421015151561036357600080fd5b60011515600560009054906101000a900460ff16151514151561038557600080fd5b600360009054906101000a900473ffffffffffffffffffffffffffffffffffffffff1673ffffffffffffffffffffffffffffffffffffffff163373ffffffffffffffffffffffffffffffffffffffff1614156103e0576103e1565b5b565b600360009054906101000a900473ffffffffffffffffffffffffffffffffffffffff1673ffffffffffffffffffffffffffffffffffffffff163373ffffffffffffffffffffffffffffffffffffffff1614151561043f57600080fd5b6000544210151561044f57600080fd5b60001515600560009054906101000a900460ff16151514151561047157600080fd5b42600081905550565b6000600154905090565b6000600360009054906101000a900473ffffffffffffffffffffffffffffffffffffffff16905090565b6104b6610850565b60048054600181600116156101000203166002900480601f01602080910402602001604051908101604052809291908181526020018280546001816001161561010002031660029004801561054c5780601f106105215761010080835404028352916020019161054c565b820191906000526020600020905b81548152906001019060200180831161052f57829003601f168201915b5050505050905090565b6000600660008373ffffffffffffffffffffffffffffffffffffffff1673ffffffffffffffffffffffffffffffffffffffff168152602001908152602001600020549050809050919050565b600360009054906101000a900473ffffffffffffffffffffffffffffffffffffffff1673ffffffffffffffffffffffffffffffffffffffff163373ffffffffffffffffffffffffffffffffffffffff161415156105fe57600080fd5b6000544210151561060e57600080fd5b60001515600560009054906101000a900460ff16151514151561063057600080fd5b6001600560006101000a81548160ff021916908315150217905550565b6000600360009054906101000a900473ffffffffffffffffffffffffffffffffffffffff1673ffffffffffffffffffffffffffffffffffffffff163373ffffffffffffffffffffffffffffffffffffffff16141515156106ac57600080fd5b600054421015156106bc57600080fd5b60001515600560009054906101000a900460ff1615151415156106de57600080fd5b34600660003373ffffffffffffffffffffffffffffffffffffffff1673ffffffffffffffffffffffffffffffffffffffff168152602001908152602001600020540190508060015410151561073257600080fd5b8060018190555033600260006101000a81548173ffffffffffffffffffffffffffffffffffffffff021916908373ffffffffffffffffffffffffffffffffffffffff16021790555080600660003373ffffffffffffffffffffffffffffffffffffffff1673ffffffffffffffffffffffffffffffffffffffff168152602001908152602001600020819055507f920013593b68219a1686cf4db30fbac5fb83addce1b2f82ef2e8182c87e23d5f600260009054906101000a900473ffffffffffffffffffffffffffffffffffffffff16600154604051808373ffffffffffffffffffffffffffffffffffffffff1673ffffffffffffffffffffffffffffffffffffffff1681526020018281526020019250505060405180910390a150565b6020604051908101604052806000815250905600a165627a7a723058208fe330c4799a4df4a247a3d9a2a326ecd37b5abaa06f0629b91c9415ef2e0d750029a165627a7a72305820a2723caa745683b4a3e3b3914fb2d4a342b4a992a770a8f93417170d437eb90f0029",
  "source": "pragma solidity ^0.4.18;\r\n\r\n\r\nimport \"./Auction.sol\";\r\n\r\ncontract AuctionFactory {\r\n    Auction[] private auctions;\r\n\r\n    event AuctionCreated(address owner, address auction);\r\n\r\n    function AuctionFactory() public {\r\n\r\n    }\r\n\r\n    function createAuction(uint duration, uint startAuctionAmount, string imageUrl) public {\r\n        Auction auction = new Auction(msg.sender, duration, startAuctionAmount, imageUrl);\r\n        auctions.push(auction);\r\n        AuctionCreated(msg.sender, auction);\r\n    }\r\n\r\n    function getAuctions() public view returns (Auction[]) {\r\n        return auctions;\r\n    }\r\n}",
  "sourcePath": "D:\\Education\\Dapp-Auction\\DAuction\\contracts\\AuctionFactory.sol",
  "compiler": {
    "name": "solc",
    "version": "0.4.19+commit.c4cbbb05.Emscripten.clang"
  },
  "schemaVersion": "1.0.1",
  "updatedAt": "2018-02-28T10:06:59.944Z"
}